{
  "_format": "hh-sol-artifact-1",
  "contractName": "Verifier",
  "sourceName": "contracts/verifier.sol",
  "abi": [
    {
      "inputs": [
        {
          "internalType": "uint256[2]",
          "name": "a",
          "type": "uint256[2]"
        },
        {
          "internalType": "uint256[2][2]",
          "name": "b",
          "type": "uint256[2][2]"
        },
        {
          "internalType": "uint256[2]",
          "name": "c",
          "type": "uint256[2]"
        },
        {
          "internalType": "uint256[16]",
          "name": "input",
          "type": "uint256[16]"
        }
      ],
      "name": "verifyProof",
      "outputs": [
        {
          "internalType": "bool",
          "name": "r",
          "type": "bool"
        }
      ],
      "stateMutability": "view",
      "type": "function"
    }
  ],
  "bytecode": "0x608060405234801561001057600080fd5b50611979806100206000396000f3fe608060405234801561001057600080fd5b506004361061002b5760003560e01c8063c82febf514610030575b600080fd5b610190600480360361030081101561004757600080fd5b8101908080604001906002806020026040519081016040528092919082600260200280828437600081840152601f19601f82011690508083019250505050505091929192908060800190600280602002604051908101604052809291906000905b828210156100fc578382604002016002806020026040519081016040528092919082600260200280828437600081840152601f19601f820116905080830192505050505050815260200190600101906100a8565b50505050919291929080604001906002806020026040519081016040528092919082600260200280828437600081840152601f19601f82011690508083019250505050505091929192908061020001906010806020026040519081016040528092919082601060200280828437600081840152601f19601f82011690508083019250505050505091929192905050506101aa565b604051808215151515815260200191505060405180910390f35b60006101b4611801565b6040518060400160405280876000600281106101cc57fe5b60200201518152602001876001600281106101e357fe5b60200201518152508160000181905250604051806040016040528060405180604001604052808860006002811061021657fe5b602002015160006002811061022757fe5b602002015181526020018860006002811061023e57fe5b602002015160016002811061024f57fe5b6020020151815250815260200160405180604001604052808860016002811061027457fe5b602002015160006002811061028557fe5b602002015181526020018860016002811061029c57fe5b60200201516001600281106102ad57fe5b602002015181525081525081602001819052506040518060400160405280856000600281106102d857fe5b60200201518152602001856001600281106102ef57fe5b602002015181525081604001819052506060601067ffffffffffffffff8111801561031957600080fd5b506040519080825280602002602001820160405280156103485781602001602082028036833780820191505090505b50905060008090505b60108110156103905784816010811061036657fe5b602002015182828151811061037757fe5b6020026020010181815250508080600101915050610351565b50600061039d82846103bd565b14156103ae576001925050506103b5565b6000925050505b949350505050565b6000807f30644e72e131a029b85045b68181585d2833e84879b9709143e1f593f000000190506103eb611834565b6103f36105f1565b9050806080015151600186510114610473576040517f08c379a00000000000000000000000000000000000000000000000000000000081526004018080602001828103825260128152602001807f76657269666965722d6261642d696e707574000000000000000000000000000081525060200191505060405180910390fd5b61047b61187b565b6040518060400160405280600081526020016000815250905060008090505b865181101561057a57838782815181106104b057fe5b60200260200101511061052b576040517f08c379a000000000000000000000000000000000000000000000000000000000815260040180806020018281038252601f8152602001807f76657269666965722d6774652d736e61726b2d7363616c61722d6669656c640081525060200191505060405180910390fd5b61056b826105668560800151600185018151811061054557fe5b60200260200101518a858151811061055957fe5b6020026020010151611084565b61117f565b9150808060010191505061049a565b5061059d81836080015160008151811061059057fe5b602002602001015161117f565b90506105d36105af8660000151611299565b8660200151846000015185602001518587604001518b604001518960600151611333565b6105e357600193505050506105eb565b600093505050505b92915050565b6105f9611834565b60405180604001604052807f0b6156b9fdd67dcfd42ccc8b1f871b4b01f1a779e49672778d8fe3886d0b144781526020017f055ef9f2a240913f18136676b24a0197d483446fe4772fa5557382ed14091e128152508160000181905250604051806040016040528060405180604001604052807f146e8f23f40c2becd96a22c54eaadfaf1913a562f98022bc81101d00a303a28981526020017f0519b21c6e4c851407c18f69dbeb3769189f82e6c7614e8c20601d183286d0df815250815260200160405180604001604052807f1a55fe032eec2cf99083ee4f25ed8f351a4fb2f47983da97df744e55c5b31c1181526020017f0716f37f6ee205b05f3bc97ebb1b1c5d5d711d483cc0b6e2a17ffb9f8f6ab5b58152508152508160200181905250604051806040016040528060405180604001604052807f198e9393920d483a7260bfb731fb5d25f1aa493335a9e71297e485b7aef312c281526020017f1800deef121f1e76426a00665e5c4479674322d4f75edadd46debd5cd992f6ed815250815260200160405180604001604052807f090689d0585ff075ec9e99ad690c3395bc4b313370b38ef355acdadcd122975b81526020017f12c85ea5db8c6deb4aab71808dcb408fe3d1e7690c43d37b4ce6cc0166fa7daa8152508152508160400181905250604051806040016040528060405180604001604052807f26c1b4adb7a72cbc147575b07d4c0aa70198f0bd5e3004435f3302eb53ee4a3881526020017f21ae088695bc565ef64b983f7f51052af1fec3b8848ddadd068512ddfff64f69815250815260200160405180604001604052807f1a65227c92930d4bd21a173f69022a07039480b9e958064caa3ba4bf5c167c8c81526020017f0f01b91ee5b259accdc962513e5406dda7ed34e89271f7d6cd46b162fb4bd8348152508152508160600181905250601167ffffffffffffffff811180156108bd57600080fd5b506040519080825280602002602001820160405280156108f757816020015b6108e461187b565b8152602001906001900390816108dc5790505b50816080018190525060405180604001604052807f016698ffdea94a4ca35ba90d8a314a1226a1d838c0a20a18175e3a97bb07a4a081526020017f21c0eb809aca6c1dfeb584d7d7c657f9c56aa9c6b04dd0e02cf7f05decdf3f90815250816080015160008151811061096657fe5b602002602001018190525060405180604001604052807f1d301c74624e707609b04862b32415543839fdd3a31803a71b328334cd3a139381526020017f29d9ffcff21c611960bd15a6033029840123261aeb1bcc359a6b2d88eb120f3981525081608001516001815181106109d757fe5b602002602001018190525060405180604001604052807f2f18d6f445bebec6b76ab2bef3a2b23976d19394601bb84efccf3b498067fd3d81526020017f09bedbcbe17bc1fbd190c1274bb8f1b1a5c22434f4a87a2601e2415237b6bcce8152508160800151600281518110610a4857fe5b602002602001018190525060405180604001604052807f0fe9b9fd27dc32a9fad108de1443dec77ba6956522121acc59754b0e71f8006d81526020017f020ddc9b65873a9a4a426968f0708738d559fd30e2cd67ecf2bb1ca64df613288152508160800151600381518110610ab957fe5b602002602001018190525060405180604001604052807f0e063b8bc8d0b45a263e933a0acbce4fc515cf06f093992f2cd671fd33bee45981526020017f2a5440665aa25350d57f4da9e2c406dfb20f06ca977596745be76dbf43e5fa948152508160800151600481518110610b2a57fe5b602002602001018190525060405180604001604052807f0c46e0393ff823f2b5ccbd79e6fa138723fea8a20ec5def48c513c26c0cd95cc81526020017f0f6d77312b57b44fe5d863eb87467a358ffe4a5cefd9f168867b8b6d827e722e8152508160800151600581518110610b9b57fe5b602002602001018190525060405180604001604052807f26660d21d63097ac1edd0d48c02a571211959073d5c8398a0edf30bcfb276eb981526020017f104c4bd4f5434ad278ef3802f337301da187a3127adc4b28a0077f5f10c9b6f68152508160800151600681518110610c0c57fe5b602002602001018190525060405180604001604052807f0d52d6214f1e29b5bab973fb09fa7e07309ae6cfd571fd6de9225fa0b9d6d92381526020017f2be8ecd1ff67dcff2bb13ba344e28b756b863682207231b4e25011adece15c258152508160800151600781518110610c7d57fe5b602002602001018190525060405180604001604052807f04556154887597ba7d4da23aea68aa6796add4cee1224af687e4377610755d3081526020017f1095d2e031a1c9c0a1266531c1dad0ad2be50e9d351933b05692555f65d28b8f8152508160800151600881518110610cee57fe5b602002602001018190525060405180604001604052807f2477b1d43b2e9b7089d41b94c8daa660a1d6913d0f1cc4e7661319c538b408e281526020017f2a168e935a78a408f7a28b663e9399b08fd0314305dba45f57e7e69462bdb3978152508160800151600981518110610d5f57fe5b602002602001018190525060405180604001604052807f12c9a1de3b8f075ef5a4cfed2b54f082579bf2c5521a3301665df6cb87238d7681526020017f2669b9900ea9010e558038704c5e5da487f45c444f3bb146be12377f262863878152508160800151600a81518110610dd057fe5b602002602001018190525060405180604001604052807f294cba544f665ea4872644cba1134d9a60d2764888b497d42f00219e73210dc381526020017f25748a5a3cb9bc8b3bfa569aa76c6ed6f947edcee8a5d091bd2f5af635ff86828152508160800151600b81518110610e4157fe5b602002602001018190525060405180604001604052807f2d1af64f200d1f13c8b75eca437cff29ea6176ee8642f84c782a9a5cc69a4fcf81526020017f02599bc710b863aa97352d955f87a51e1f478b1a0716cad4b34890517758002c8152508160800151600c81518110610eb257fe5b602002602001018190525060405180604001604052807f1f3b9c82ccb46f2a072c433b8570b2cc2a141a1ee2a32d6d1a22b09716d0df3081526020017f1308c515b45e0290cbe3245756c0388152be8570e201ba5828a24a6b8ed279b78152508160800151600d81518110610f2357fe5b602002602001018190525060405180604001604052807f07e0e852b5a9863f64945dafa117687bfb5123ab1378b4591c7e302f9fe3167c81526020017f2a430680cdc0f9ed707565e58696616ccf1f2af7a20351b767f09769b00332c48152508160800151600e81518110610f9457fe5b602002602001018190525060405180604001604052807f18c61d6d5c380e68ce8df6b050601b2d9f5318418a8413a0e0947c907cd8614b81526020017f0f67ee76bd0286e22161147712d93a14b092ad604fe4b26f36d52fd68379d1128152508160800151600f8151811061100557fe5b602002602001018190525060405180604001604052807f2d80fbe10cfb9c6b0fc89cd81aba208ffa5eb04ad012d0abf04564ee38bb065081526020017f18a662d991b13f6a43265e50bfcfa3676768aa391e3226ae2e825f38cc57e8d7815250816080015160108151811061107657fe5b602002602001018190525090565b61108c61187b565b611094611895565b8360000151816000600381106110a657fe5b6020020181815250508360200151816001600381106110c157fe5b60200201818152505082816002600381106110d857fe5b602002018181525050600060608360808460076107d05a03fa9050806000811461110157611103565bfe5b5080611177576040517f08c379a00000000000000000000000000000000000000000000000000000000081526004018080602001828103825260128152602001807f70616972696e672d6d756c2d6661696c6564000000000000000000000000000081525060200191505060405180910390fd5b505092915050565b61118761187b565b61118f6118b7565b8360000151816000600481106111a157fe5b6020020181815250508360200151816001600481106111bc57fe5b6020020181815250508260000151816002600481106111d757fe5b6020020181815250508260200151816003600481106111f257fe5b602002018181525050600060608360c08460066107d05a03fa9050806000811461121b5761121d565bfe5b5080611291576040517f08c379a00000000000000000000000000000000000000000000000000000000081526004018080602001828103825260128152602001807f70616972696e672d6164642d6661696c6564000000000000000000000000000081525060200191505060405180910390fd5b505092915050565b6112a161187b565b60007f30644e72e131a029b85045b68181585d97816a916871ca8d3c208c16d87cfd479050600083600001511480156112de575060008360200151145b1561130257604051806040016040528060008152602001600081525091505061132e565b6040518060400160405280846000015181526020018285602001518161132457fe5b0683038152509150505b919050565b60006060600467ffffffffffffffff8111801561134f57600080fd5b5060405190808252806020026020018201604052801561138957816020015b61137661187b565b81526020019060019003908161136e5790505b5090506060600467ffffffffffffffff811180156113a657600080fd5b506040519080825280602002602001820160405280156113e057816020015b6113cd6118d9565b8152602001906001900390816113c55790505b5090508a826000815181106113f157fe5b6020026020010181905250888260018151811061140a57fe5b6020026020010181905250868260028151811061142357fe5b6020026020010181905250848260038151811061143c57fe5b6020026020010181905250898160008151811061145557fe5b6020026020010181905250878160018151811061146e57fe5b6020026020010181905250858160028151811061148757fe5b602002602001018190525083816003815181106114a057fe5b60200260200101819052506114b582826114c5565b9250505098975050505050505050565b6000815183511461153e576040517f08c379a00000000000000000000000000000000000000000000000000000000081526004018080602001828103825260168152602001807f70616972696e672d6c656e677468732d6661696c65640000000000000000000081525060200191505060405180910390fd5b600083519050600060068202905060608167ffffffffffffffff8111801561156557600080fd5b506040519080825280602002602001820160405280156115945781602001602082028036833780820191505090505b50905060008090505b8381101561173a578681815181106115b157fe5b6020026020010151600001518260006006840201815181106115cf57fe5b6020026020010181815250508681815181106115e757fe5b60200260200101516020015182600160068402018151811061160557fe5b60200260200101818152505085818151811061161d57fe5b60200260200101516000015160006002811061163557fe5b602002015182600260068402018151811061164c57fe5b60200260200101818152505085818151811061166457fe5b60200260200101516000015160016002811061167c57fe5b602002015182600360068402018151811061169357fe5b6020026020010181815250508581815181106116ab57fe5b6020026020010151602001516000600281106116c357fe5b60200201518260046006840201815181106116da57fe5b6020026020010181815250508581815181106116f257fe5b60200260200101516020015160016002811061170a57fe5b602002015182600560068402018151811061172157fe5b602002602001018181525050808060010191505061159d565b506117436118ff565b6000602082602086026020860160086107d05a03fa905080600081146117685761176a565bfe5b50806117de576040517f08c379a00000000000000000000000000000000000000000000000000000000081526004018080602001828103825260158152602001807f70616972696e672d6f70636f64652d6661696c6564000000000000000000000081525060200191505060405180910390fd5b6000826000600181106117ed57fe5b602002015114159550505050505092915050565b604051806060016040528061181461187b565b81526020016118216118d9565b815260200161182e61187b565b81525090565b6040518060a0016040528061184761187b565b81526020016118546118d9565b81526020016118616118d9565b815260200161186e6118d9565b8152602001606081525090565b604051806040016040528060008152602001600081525090565b6040518060600160405280600390602082028036833780820191505090505090565b6040518060800160405280600490602082028036833780820191505090505090565b60405180604001604052806118ec611921565b81526020016118f9611921565b81525090565b6040518060200160405280600190602082028036833780820191505090505090565b604051806040016040528060029060208202803683378082019150509050509056fea2646970667358221220182ef5b80860c25cb9dd8420b66846f3edc5076581ac13f1aadcde527a17427b64736f6c634300060b0033",
  "linkReferences": {},
  "deployedLinkReferences": {}
}