{
  "_format": "hh-sol-artifact-1",
  "contractName": "Verifier",
  "sourceName": "contracts/verifier.sol",
  "abi": [
    {
      "inputs": [
        {
          "internalType": "uint256[2]",
          "name": "a",
          "type": "uint256[2]"
        },
        {
          "internalType": "uint256[2][2]",
          "name": "b",
          "type": "uint256[2][2]"
        },
        {
          "internalType": "uint256[2]",
          "name": "c",
          "type": "uint256[2]"
        },
        {
          "internalType": "uint256[17]",
          "name": "input",
          "type": "uint256[17]"
        }
      ],
      "name": "verifyProof",
      "outputs": [
        {
          "internalType": "bool",
          "name": "r",
          "type": "bool"
        }
      ],
      "stateMutability": "view",
      "type": "function"
    }
  ],
  "bytecode": "0x608060405234801561001057600080fd5b506119e9806100206000396000f3fe608060405234801561001057600080fd5b506004361061002b5760003560e01c8063c1940a3614610030575b600080fd5b610190600480360361032081101561004757600080fd5b8101908080604001906002806020026040519081016040528092919082600260200280828437600081840152601f19601f82011690508083019250505050505091929192908060800190600280602002604051908101604052809291906000905b828210156100fc578382604002016002806020026040519081016040528092919082600260200280828437600081840152601f19601f820116905080830192505050505050815260200190600101906100a8565b50505050919291929080604001906002806020026040519081016040528092919082600260200280828437600081840152601f19601f82011690508083019250505050505091929192908061022001906011806020026040519081016040528092919082601160200280828437600081840152601f19601f82011690508083019250505050505091929192905050506101aa565b604051808215151515815260200191505060405180910390f35b60006101b4611871565b6040518060400160405280876000600281106101cc57fe5b60200201518152602001876001600281106101e357fe5b60200201518152508160000181905250604051806040016040528060405180604001604052808860006002811061021657fe5b602002015160006002811061022757fe5b602002015181526020018860006002811061023e57fe5b602002015160016002811061024f57fe5b6020020151815250815260200160405180604001604052808860016002811061027457fe5b602002015160006002811061028557fe5b602002015181526020018860016002811061029c57fe5b60200201516001600281106102ad57fe5b602002015181525081525081602001819052506040518060400160405280856000600281106102d857fe5b60200201518152602001856001600281106102ef57fe5b602002015181525081604001819052506060601167ffffffffffffffff8111801561031957600080fd5b506040519080825280602002602001820160405280156103485781602001602082028036833780820191505090505b50905060008090505b60118110156103905784816011811061036657fe5b602002015182828151811061037757fe5b6020026020010181815250508080600101915050610351565b50600061039d82846103bd565b14156103ae576001925050506103b5565b6000925050505b949350505050565b6000807f30644e72e131a029b85045b68181585d2833e84879b9709143e1f593f000000190506103eb6118a4565b6103f36105f1565b9050806080015151600186510114610473576040517f08c379a00000000000000000000000000000000000000000000000000000000081526004018080602001828103825260128152602001807f76657269666965722d6261642d696e707574000000000000000000000000000081525060200191505060405180910390fd5b61047b6118eb565b6040518060400160405280600081526020016000815250905060008090505b865181101561057a57838782815181106104b057fe5b60200260200101511061052b576040517f08c379a000000000000000000000000000000000000000000000000000000000815260040180806020018281038252601f8152602001807f76657269666965722d6774652d736e61726b2d7363616c61722d6669656c640081525060200191505060405180910390fd5b61056b826105668560800151600185018151811061054557fe5b60200260200101518a858151811061055957fe5b60200260200101516110f4565b6111ef565b9150808060010191505061049a565b5061059d81836080015160008151811061059057fe5b60200260200101516111ef565b90506105d36105af8660000151611309565b8660200151846000015185602001518587604001518b6040015189606001516113a3565b6105e357600193505050506105eb565b600093505050505b92915050565b6105f96118a4565b60405180604001604052807f13527998c908deb6c64b8be6ebc1c4b71c271e36f1abc488c759527c22868de881526020017f1dc42ef36881f5c2d66d1b74953dc3eaf150068a123eb613ce3d42fc1ec2fa798152508160000181905250604051806040016040528060405180604001604052807f276a96c2f53c87ce55cca560cc779065d400fe8c56cf1ed10c8e63927d6d648781526020017f0fd5459cc89ebcc37d43a4accff979ffb3289482373b424d309381e1509ffd06815250815260200160405180604001604052807f0a8696d39b013e6dd50360753e646fe3901f5f6782a51ddfce9a9af733a6570281526020017f06024e393404ab122402c34afdbc0053476bc763c991cf0d9c7abd3326327ec58152508152508160200181905250604051806040016040528060405180604001604052807f198e9393920d483a7260bfb731fb5d25f1aa493335a9e71297e485b7aef312c281526020017f1800deef121f1e76426a00665e5c4479674322d4f75edadd46debd5cd992f6ed815250815260200160405180604001604052807f090689d0585ff075ec9e99ad690c3395bc4b313370b38ef355acdadcd122975b81526020017f12c85ea5db8c6deb4aab71808dcb408fe3d1e7690c43d37b4ce6cc0166fa7daa8152508152508160400181905250604051806040016040528060405180604001604052807f2b5b698dea9d7fe2040e21ab7ad41a6441fc4feb7e2694bc682c2fca24386fd581526020017f07706259dc11e38e7c8726b6105ea4ed38f9149a6ff69fd1595e4f8f2e4f9fad815250815260200160405180604001604052807f1fb30c107a75cc9b45c566081e5c471a30a66be5ccdd9ddd3bdcee76cf777e2d81526020017f22fe75ca3f23c87803de4d1e471e0247f75013bdbc3149112b5a77910b7a861d8152508152508160600181905250601267ffffffffffffffff811180156108bd57600080fd5b506040519080825280602002602001820160405280156108f757816020015b6108e46118eb565b8152602001906001900390816108dc5790505b50816080018190525060405180604001604052807f18a3775fb0b3277528c17691b0777592c31628fa7fcfeedec65722cc90e1fe1d81526020017f13d350306d393c309e50e0eb112b27b1aa04242f9046553ca0fc875c33f0750e815250816080015160008151811061096657fe5b602002602001018190525060405180604001604052807f1e4ec236663ccb1bffe6f518e7bbbdd6d6dff440a120c21e9ed34e06e153cb8681526020017f140c0c417bdc51ab870f4c3f86a2eb13675a5190fcee29665caf78b4c45a56b881525081608001516001815181106109d757fe5b602002602001018190525060405180604001604052807f0f1da5ec14f922d338325ae1b9ce167af26d926fecce7fa081c0cc088cc4fd0e81526020017f2b54edc56e715a7d3493ffff6e8de397f95526f2b5b8d41c6549cbbc5fe71f568152508160800151600281518110610a4857fe5b602002602001018190525060405180604001604052807f2354b920d240fd44b401025c2191e67ae38df9e50c62c060660eb21588ad810e81526020017e0e15e373e15a6ba12ad3b6c27c72d2d0687262133d4ed3e5745266ba8a6a5f8152508160800151600381518110610ab857fe5b602002602001018190525060405180604001604052807f09c13ea853a0d4d4aaabe2a085f001de53ebbd38c767a47632a10828f6c5a33281526020017f127ae480b95fac38819dcf14cb5fe522eab76d7ad479bd93c078f82dd3214b558152508160800151600481518110610b2957fe5b602002602001018190525060405180604001604052807f2907968abbe70292294ae28b6d8c6db805c3c5df7a6c3f303ac92eaf1dc62a2f81526020017f21bb89f8200f52c0630fcdd7e6b0ae070658949ee6f8bb32ef01d8e5123dc7e08152508160800151600581518110610b9a57fe5b602002602001018190525060405180604001604052807f2db547751f8f68946e23473949792412469b89f2e6711209b9b82c9fb4fd1ab481526020017f25b19a2dd0a7d7b17595e009b2d61941dc32a381806918bc56445c6ba2a653298152508160800151600681518110610c0b57fe5b602002602001018190525060405180604001604052807f08a98479816c18d7aef8feee74481ae16b58ad147b8623e1f5d992e59f5ca92681526020017f08b47a90b7043f18671b935e0173cdbdc999a4f73066d03cd998734e2b3d46308152508160800151600781518110610c7c57fe5b602002602001018190525060405180604001604052807f21b3855c1818b885e89bc5859f83dd0d72fba0263317a021c3969f064828c2ae81526020017f29924d0fa8089962cf99bb7ec598c3c5640b856abf0a53ed5e6a3749456f66238152508160800151600881518110610ced57fe5b602002602001018190525060405180604001604052807f14d82e4cdb86a50bf36f7b47d64d1ab8becaf336fe8c50c109169bdeac670d1e81526020017f1a378f85679ded19876820dd552f88443aab882c23f3daf7f7d06cca09f86f768152508160800151600981518110610d5e57fe5b602002602001018190525060405180604001604052807f1197cec5908762398218edbaa26ff4ddb092c1ccdba0be56363440b82a3ddee181526020017f0fc37a7a3c757f588c1638b1d0bc3330e322551970063e5b73f659e51b7c72e58152508160800151600a81518110610dcf57fe5b602002602001018190525060405180604001604052807f2c15aef95bb8484d965429118797eb5963999a2462e6973bbf3a9b830f7f24bb81526020017f04d01ada0407f034d4e7d563d48465dd41a17e64bb8aadaeb0343675ca8607058152508160800151600b81518110610e4057fe5b602002602001018190525060405180604001604052807f2c4ec4278ca3dd0f9b03491ef4eaf093fc3a025e662e25aa7a8d9bf21b38f12581526020017f2dbe0c3a7e2ce5dbb74c40458f7cb14b5823f0c6ecfedd938c7a2333c76474b48152508160800151600c81518110610eb157fe5b602002602001018190525060405180604001604052807f1cdf5cff80407b5174e346b41324d2a7204d04a7d676dd95f6ccdfb01a2338ef81526020017f188de85b128229027d16d8475009870691d85a6f50d13741fad40e32b4ef330f8152508160800151600d81518110610f2257fe5b602002602001018190525060405180604001604052807f1ed1ea8547e78703ba9e3851a9e45aafa476fc0afdb1fb5d678ba378207e18a681526020017f2e9ccab0dd07ca8475428ba51c6e5e5e03fa7cab83cb11bf31327ba970fa0ea08152508160800151600e81518110610f9357fe5b602002602001018190525060405180604001604052807f25b4af097377b9b0d3272833ff2037d496ae95d281f39a58aa4495456668fdc181526020017f2618d132b14e1aa1774e7579b91d3256b02d29f7dff81366e39d57822c64a1688152508160800151600f8151811061100457fe5b602002602001018190525060405180604001604052807f020f9ef15298fccc94285a65bd87f78db26bc29d2ac77a10e2f6569d7c3b755a81526020017f23c63c3267deb87f998c64875a73b41f3a838067578d9461a736ac16f9e1844f815250816080015160108151811061107557fe5b602002602001018190525060405180604001604052807f0db0187abb46d1561b53939c6ce0f36e458721dac95796c2aa0b02e5aae63aa181526020017f21cfea30ad7e34329097e7b7d3b1dbfd6ee37fccc4315b30df0cec36b20b9d7f81525081608001516011815181106110e657fe5b602002602001018190525090565b6110fc6118eb565b611104611905565b83600001518160006003811061111657fe5b60200201818152505083602001518160016003811061113157fe5b602002018181525050828160026003811061114857fe5b602002018181525050600060608360808460076107d05a03fa9050806000811461117157611173565bfe5b50806111e7576040517f08c379a00000000000000000000000000000000000000000000000000000000081526004018080602001828103825260128152602001807f70616972696e672d6d756c2d6661696c6564000000000000000000000000000081525060200191505060405180910390fd5b505092915050565b6111f76118eb565b6111ff611927565b83600001518160006004811061121157fe5b60200201818152505083602001518160016004811061122c57fe5b60200201818152505082600001518160026004811061124757fe5b60200201818152505082602001518160036004811061126257fe5b602002018181525050600060608360c08460066107d05a03fa9050806000811461128b5761128d565bfe5b5080611301576040517f08c379a00000000000000000000000000000000000000000000000000000000081526004018080602001828103825260128152602001807f70616972696e672d6164642d6661696c6564000000000000000000000000000081525060200191505060405180910390fd5b505092915050565b6113116118eb565b60007f30644e72e131a029b85045b68181585d97816a916871ca8d3c208c16d87cfd4790506000836000015114801561134e575060008360200151145b1561137257604051806040016040528060008152602001600081525091505061139e565b6040518060400160405280846000015181526020018285602001518161139457fe5b0683038152509150505b919050565b60006060600467ffffffffffffffff811180156113bf57600080fd5b506040519080825280602002602001820160405280156113f957816020015b6113e66118eb565b8152602001906001900390816113de5790505b5090506060600467ffffffffffffffff8111801561141657600080fd5b5060405190808252806020026020018201604052801561145057816020015b61143d611949565b8152602001906001900390816114355790505b5090508a8260008151811061146157fe5b6020026020010181905250888260018151811061147a57fe5b6020026020010181905250868260028151811061149357fe5b602002602001018190525084826003815181106114ac57fe5b602002602001018190525089816000815181106114c557fe5b602002602001018190525087816001815181106114de57fe5b602002602001018190525085816002815181106114f757fe5b6020026020010181905250838160038151811061151057fe5b60200260200101819052506115258282611535565b9250505098975050505050505050565b600081518351146115ae576040517f08c379a00000000000000000000000000000000000000000000000000000000081526004018080602001828103825260168152602001807f70616972696e672d6c656e677468732d6661696c65640000000000000000000081525060200191505060405180910390fd5b600083519050600060068202905060608167ffffffffffffffff811180156115d557600080fd5b506040519080825280602002602001820160405280156116045781602001602082028036833780820191505090505b50905060008090505b838110156117aa5786818151811061162157fe5b60200260200101516000015182600060068402018151811061163f57fe5b60200260200101818152505086818151811061165757fe5b60200260200101516020015182600160068402018151811061167557fe5b60200260200101818152505085818151811061168d57fe5b6020026020010151600001516000600281106116a557fe5b60200201518260026006840201815181106116bc57fe5b6020026020010181815250508581815181106116d457fe5b6020026020010151600001516001600281106116ec57fe5b602002015182600360068402018151811061170357fe5b60200260200101818152505085818151811061171b57fe5b60200260200101516020015160006002811061173357fe5b602002015182600460068402018151811061174a57fe5b60200260200101818152505085818151811061176257fe5b60200260200101516020015160016002811061177a57fe5b602002015182600560068402018151811061179157fe5b602002602001018181525050808060010191505061160d565b506117b361196f565b6000602082602086026020860160086107d05a03fa905080600081146117d8576117da565bfe5b508061184e576040517f08c379a00000000000000000000000000000000000000000000000000000000081526004018080602001828103825260158152602001807f70616972696e672d6f70636f64652d6661696c6564000000000000000000000081525060200191505060405180910390fd5b60008260006001811061185d57fe5b602002015114159550505050505092915050565b60405180606001604052806118846118eb565b8152602001611891611949565b815260200161189e6118eb565b81525090565b6040518060a001604052806118b76118eb565b81526020016118c4611949565b81526020016118d1611949565b81526020016118de611949565b8152602001606081525090565b604051806040016040528060008152602001600081525090565b6040518060600160405280600390602082028036833780820191505090505090565b6040518060800160405280600490602082028036833780820191505090505090565b604051806040016040528061195c611991565b8152602001611969611991565b81525090565b6040518060200160405280600190602082028036833780820191505090505090565b604051806040016040528060029060208202803683378082019150509050509056fea2646970667358221220620dd233ffa833d57e5b656f8700b8103eb2220c358812f4b6143843782903d864736f6c634300060b0033",
  "linkReferences": {},
  "deployedLinkReferences": {}
}